{
  "_format": "hh-sol-artifact-1",
  "contractName": "AICredits",
  "sourceName": "contracts/AICredits.sol",
  "abi": [
    {
      "inputs": [
        {
          "internalType": "uint256",
          "name": "_exchangeRate",
          "type": "uint256"
        }
      ],
      "stateMutability": "nonpayable",
      "type": "constructor"
    },
    {
      "anonymous": false,
      "inputs": [
        {
          "indexed": true,
          "internalType": "address",
          "name": "user",
          "type": "address"
        },
        {
          "indexed": false,
          "internalType": "uint256",
          "name": "creditsSpent",
          "type": "uint256"
        }
      ],
      "name": "CreditsDeducted",
      "type": "event"
    },
    {
      "anonymous": false,
      "inputs": [
        {
          "indexed": true,
          "internalType": "address",
          "name": "user",
          "type": "address"
        },
        {
          "indexed": false,
          "internalType": "uint256",
          "name": "avaxAmount",
          "type": "uint256"
        },
        {
          "indexed": false,
          "internalType": "uint256",
          "name": "creditsMinted",
          "type": "uint256"
        }
      ],
      "name": "TopUp",
      "type": "event"
    },
    {
      "inputs": [
        {
          "internalType": "address",
          "name": "",
          "type": "address"
        }
      ],
      "name": "creditBalances",
      "outputs": [
        {
          "internalType": "uint256",
          "name": "",
          "type": "uint256"
        }
      ],
      "stateMutability": "view",
      "type": "function"
    },
    {
      "inputs": [],
      "name": "exchangeRate",
      "outputs": [
        {
          "internalType": "uint256",
          "name": "",
          "type": "uint256"
        }
      ],
      "stateMutability": "view",
      "type": "function"
    },
    {
      "inputs": [],
      "name": "owner",
      "outputs": [
        {
          "internalType": "address",
          "name": "",
          "type": "address"
        }
      ],
      "stateMutability": "view",
      "type": "function"
    },
    {
      "inputs": [
        {
          "internalType": "uint256",
          "name": "_newRate",
          "type": "uint256"
        }
      ],
      "name": "setExchangeRate",
      "outputs": [],
      "stateMutability": "nonpayable",
      "type": "function"
    },
    {
      "inputs": [
        {
          "internalType": "address",
          "name": "user",
          "type": "address"
        },
        {
          "internalType": "uint256",
          "name": "amount",
          "type": "uint256"
        }
      ],
      "name": "spendCredits",
      "outputs": [],
      "stateMutability": "nonpayable",
      "type": "function"
    },
    {
      "inputs": [],
      "name": "topUp",
      "outputs": [],
      "stateMutability": "payable",
      "type": "function"
    },
    {
      "inputs": [],
      "name": "withdraw",
      "outputs": [],
      "stateMutability": "nonpayable",
      "type": "function"
    }
  ],
  "bytecode": "0x608060405234801561001057600080fd5b50604051610bee380380610bee83398181016040528101906100329190610094565b336000806101000a81548173ffffffffffffffffffffffffffffffffffffffff021916908373ffffffffffffffffffffffffffffffffffffffff16021790555080600181905550506100de565b60008151905061008e816100c7565b92915050565b6000602082840312156100a657600080fd5b60006100b48482850161007f565b91505092915050565b6000819050919050565b6100d0816100bd565b81146100db57600080fd5b50565b610b01806100ed6000396000f3fe6080604052600436106100705760003560e01c80636009a2d81161004e5780636009a2d8146100e05780638da5cb5b1461011d578063db068e0e14610148578063dc29f1de1461017157610070565b80632614d4a4146100755780633ba0b9a91461009e5780633ccfd60b146100c9575b600080fd5b34801561008157600080fd5b5061009c60048036038101906100979190610655565b61017b565b005b3480156100aa57600080fd5b506100b3610333565b6040516100c091906108f9565b60405180910390f35b3480156100d557600080fd5b506100de610339565b005b3480156100ec57600080fd5b506101076004803603810190610102919061062c565b610430565b60405161011491906108f9565b60405180910390f35b34801561012957600080fd5b50610132610448565b60405161013f919061083e565b60405180910390f35b34801561015457600080fd5b5061016f600480360381019061016a9190610691565b61046c565b005b610179610504565b005b60008054906101000a900473ffffffffffffffffffffffffffffffffffffffff1673ffffffffffffffffffffffffffffffffffffffff163373ffffffffffffffffffffffffffffffffffffffff1614610209576040517f08c379a0000000000000000000000000000000000000000000000000000000008152600401610200906108d9565b60405180910390fd5b80600260008473ffffffffffffffffffffffffffffffffffffffff1673ffffffffffffffffffffffffffffffffffffffff16815260200190815260200160002054101561028b576040517f08c379a000000000000000000000000000000000000000000000000000000000815260040161028290610859565b60405180910390fd5b80600260008473ffffffffffffffffffffffffffffffffffffffff1673ffffffffffffffffffffffffffffffffffffffff16815260200190815260200160002060008282546102da91906109fe565b925050819055508173ffffffffffffffffffffffffffffffffffffffff167f1d9ca186c626e0ca14771900912a91678cb02770905264643d1f0d1cd2fded5e8260405161032791906108f9565b60405180910390a25050565b60015481565b60008054906101000a900473ffffffffffffffffffffffffffffffffffffffff1673ffffffffffffffffffffffffffffffffffffffff163373ffffffffffffffffffffffffffffffffffffffff16146103c7576040517f08c379a00000000000000000000000000000000000000000000000000000000081526004016103be90610899565b60405180910390fd5b60008054906101000a900473ffffffffffffffffffffffffffffffffffffffff1673ffffffffffffffffffffffffffffffffffffffff166108fc479081150290604051600060405180830381858888f1935050505015801561042d573d6000803e3d6000fd5b50565b60026020528060005260406000206000915090505481565b60008054906101000a900473ffffffffffffffffffffffffffffffffffffffff1681565b60008054906101000a900473ffffffffffffffffffffffffffffffffffffffff1673ffffffffffffffffffffffffffffffffffffffff163373ffffffffffffffffffffffffffffffffffffffff16146104fa576040517f08c379a00000000000000000000000000000000000000000000000000000000081526004016104f1906108b9565b60405180910390fd5b8060018190555050565b60003411610547576040517f08c379a000000000000000000000000000000000000000000000000000000000815260040161053e90610879565b60405180910390fd5b60006001543461055791906109a4565b905080600260003373ffffffffffffffffffffffffffffffffffffffff1673ffffffffffffffffffffffffffffffffffffffff16815260200190815260200160002060008282546105a8919061094e565b925050819055503373ffffffffffffffffffffffffffffffffffffffff167ff0f5a6096b2a43fc10bc314148e9ac3851fd8455384682f3c3cd9d2f0bc71b1734836040516105f7929190610914565b60405180910390a250565b60008135905061061181610a9d565b92915050565b60008135905061062681610ab4565b92915050565b60006020828403121561063e57600080fd5b600061064c84828501610602565b91505092915050565b6000806040838503121561066857600080fd5b600061067685828601610602565b925050602061068785828601610617565b9150509250929050565b6000602082840312156106a357600080fd5b60006106b184828501610617565b91505092915050565b6106c381610a32565b82525050565b60006106d660148361093d565b91507f496e73756666696369656e7420637265646974730000000000000000000000006000830152602082019050919050565b6000610716600e8361093d565b91507f4d7573742073656e6420415641580000000000000000000000000000000000006000830152602082019050919050565b600061075660178361093d565b91507f4f6e6c79206f776e65722063616e2077697468647261770000000000000000006000830152602082019050919050565b600061079660248361093d565b91507f4f6e6c79206f776e65722063616e20736574207468652065786368616e67652060008301527f72617465000000000000000000000000000000000000000000000000000000006020830152604082019050919050565b60006107fc601d8361093d565b91507f4f6e6c79206f776e65722063616e2064656475637420637265646974730000006000830152602082019050919050565b61083881610a64565b82525050565b600060208201905061085360008301846106ba565b92915050565b60006020820190508181036000830152610872816106c9565b9050919050565b6000602082019050818103600083015261089281610709565b9050919050565b600060208201905081810360008301526108b281610749565b9050919050565b600060208201905081810360008301526108d281610789565b9050919050565b600060208201905081810360008301526108f2816107ef565b9050919050565b600060208201905061090e600083018461082f565b92915050565b6000604082019050610929600083018561082f565b610936602083018461082f565b9392505050565b600082825260208201905092915050565b600061095982610a64565b915061096483610a64565b9250827fffffffffffffffffffffffffffffffffffffffffffffffffffffffffffffffff0382111561099957610998610a6e565b5b828201905092915050565b60006109af82610a64565b91506109ba83610a64565b9250817fffffffffffffffffffffffffffffffffffffffffffffffffffffffffffffffff04831182151516156109f3576109f2610a6e565b5b828202905092915050565b6000610a0982610a64565b9150610a1483610a64565b925082821015610a2757610a26610a6e565b5b828203905092915050565b6000610a3d82610a44565b9050919050565b600073ffffffffffffffffffffffffffffffffffffffff82169050919050565b6000819050919050565b7f4e487b7100000000000000000000000000000000000000000000000000000000600052601160045260246000fd5b610aa681610a32565b8114610ab157600080fd5b50565b610abd81610a64565b8114610ac857600080fd5b5056fea2646970667358221220ce07f9ccc72ffef1cb82cd00363dee618902a197b2ba69e34680d26b9854dfed64736f6c63430008000033",
  "linkReferences": {},
  "deployedLinkReferences": {}
}